:020000040800F2
:100000000807002091010008871100087F110008EF
:1000100083110008E90300085914000800000000DB
:10002000000000000000000000000000B511000802
:10003000910400080000000089110008B7110008B1
:10004000AB010008AB010008AB010008AB010008E0
:10005000AB010008AB010008AB010008AB010008D0
:10006000AB010008AB010008AB010008AB010008C0
:10007000AB010008AB010008AB010008AB010008B0
:10008000AB010008AB010008AB010008AB010008A0
:10009000AB010008AB010008AB010008AB01000890
:1000A000AB010008AB010008AB010008AB01000880
:1000B000AB010008AB010008AB010008AB01000870
:1000C000AB010008AB010008AB010008AB01000860
:1000D000AB010008AB010008AB010008AB01000850
:1000E000AB010008AB010008AB01000800F002F80A
:1000F00000F03FF80AA090E8000C82448344AAF183
:100100000107DA4501D100F034F8AFF2090EBAE880
:100110000F0013F0010F18BFFB1A43F0010318473B
:100120000015000020150000103A24BF78C878C1DF
:10013000FAD8520724BF30C830C144BF04680C60ED
:10014000704700000023002400250026103A28BF35
:1001500078C1FBD8520728BF30C148BF0B60704739
:10016000732900F0DD80002070471FB51FBD10B55A
:1001700010BD00F007F91146FFF7F7FF01F0CEF9C7
:1001800000F025F903B4FFF7F2FF03BC01F082F998
:100190000948804709480047FEE7FEE7FEE7FEE71B
:1001A000FEE7FEE7FEE7FEE7FEE7FEE70448054957
:1001B000054A064B70470000BF110008ED0000081B
:1001C0000801002008070020080300200803002081
:1001D000704700000FB4044910B503AA029800F05C
:1001E000A3F810BC5DF814FB100000202DE9F041CD
:1001F0000E460446002020622046E168884730B35E
:10020000252805D0D4E901219047206A401CF2E757
:10021000E168204600278847050018D0A5F1410075
:10022000192802D820354FF4006732462946204667
:100230002760FFF795FF40B1012804D0F61D26F096
:1002400007060836D8E7361DD6E72846DAE7206ADB
:10025000BDE8F08170B50C460546012A05D0287826
:10026000800600D5EA69002302E0012305E05B1C5B
:10027000934202D2E05C0028F9D1A869E618C01ABE
:10028000A861286A184428622846AFF3008004E079
:10029000D5E9012114F8010B9047B442F8D3284660
:1002A000AFF3008070BD4FF0000200B513469446D6
:1002B0009646203922BFA0E80C50A0E80C50B1F1BE
:1002C0002001BFF4F7AF090728BFA0E80C5048BFD2
:1002D0000CC05DF804EB890028BF40F8042B08BF70
:1002E000704748BF20F8022B11F0804F18BF00F86C
:1002F000012B7047704770477047704710B54369CE
:1003000013B1AFF3008001E0FFF7A4FF012010BD9F
:10031000127800F124010A7000224A700122EDE7F0
:1003200011684FF0FF32E9E7074B70B50D467B448B
:1003300000F011F80446284600F020F810B14FF004
:10034000FF3070BD204670BDCF11000001694A1C0E
:1003500002610878704700B58FB0CDE90131002106
:10036000059105497944CDE9031011466846FFF728
:100370003DFF0FB000BD0000E5FFFFFF007B00F078
:1003800080007047754600F02BF8AE4605006946C0
:10039000534620F00700854618B020B5FFF706FF4A
:1003A000BDE820404FF000064FF000074FF0000876
:1003B0004FF0000B21F00701AC46ACE8C009ACE8F7
:1003C000C009ACE8C009ACE8C0098D46704710B55B
:1003D0000446AFF300802046BDE81040FFF7D2BED0
:1003E00000487047A800002000BFFEE700B585B0B8
:1003F0000020019002900390049000BF2048806983
:1004000040F004001E4988610846806900F004003D
:10041000009000BF00BF00BF0846806940F48040E4
:1004200088610846806900F48040009000BF00BFEA
:1004300048150190022002900320049001A9114860
:1004400000F05AF84FF48060019000200290039071
:1004500001A90C4800F050F80B480C4908604FF413
:10046000E1304860002109488160C16001610C21D0
:10047000416100218161C16100F0E4FD05B000BD72
:1004800000100240000801400038014060000020D8
:100490007047000000B585B00020019002900390E5
:1004A000049000BF0F48806940F008000D49886142
:1004B0000846806900F00800009000BF00BF0820D7
:1004C000019001200290002003900320049001A9D4
:1004D000054800F011F801220821034800F09CF9BA
:1004E00005B000BD00100240000C014010B50446EC
:1004F000A0B200F0D7FF10BD2DE9F8470346002257
:1005000094466EE14FF0010808FA02F4D1F8008039
:1005100008EA0400A0427DD1DFF8DCA2D1F8048013
:10052000A8EB0A09D0453AD014DCB8F1030F50D03B
:1005300009DCB8F1000F31D0B8F1010F1CD0B8F1CF
:10054000020F49D120E0B8F1110F18D0B8F1120F05
:1005500042D11EE0B9F5881F25D006DCB9F5803FF1
:1005600020D0B9F5801F37D11AE0B9F5001F18D097
:10057000B9F5041F30D117E0D1F80CC02DE0D1F847
:100580000C8008F1040C28E0D1F80C8008F1080C6C
:1005900023E0D1F80C8008F10C0C1EE000BF00BF76
:1005A00000BF00BF00BF00BFD1F80880B8F1000F46
:1005B00002D14FF0040C0BE0D1F80880B8F1010F24
:1005C00003D14FF0080C1C6102E04FF0080C5C6195
:1005D00003E04FF0000C00E000BF00BFFF2801D88F
:1005E000984601E003F104084646FF2802D84FEA86
:1005F000820803E0A2F108084FEA88084746D6F8C7
:1006000000804FF00F0909FA07F928EA09080CFAE7
:1006100007F900E088E048EA0908C6F80080D1F848
:10062000048008F08058B8F1805F7DD100BFDFF80A
:10063000CC81D8F8188048F00108DFF8C091C9F8DB
:100640001880C846D8F8188008F00108CDF8008056
:1006500000BF00BF4FEAB9384FEA920958F8295055
:100660004FEA82784FEA18794FF00F0808FA09F834
:1006700025EA0805DFF88881434502D14FF00008DC
:1006800016E0DFF88081434502D14FF001080FE00A
:10069000DFF87481434502D14FF0020808E0DFF82B
:1006A0006C81434502D14FF0030801E04FF004088C
:1006B0004FEA82794FEA197908FA09F848EA0505FC
:1006C000DFF84C814FEA920948F82950D1F80480AC
:1006D00008F48018B8F5801F0AD1DFF83881D8F8FF
:1006E000008048EA0008DFF82C91C9F8008009E092
:1006F000DFF82081D8F8008028EA0008DFF814919C
:10070000C9F80080D1F8048008F40018B8F5001F7B
:1007100010D1DFF8008108F10408D8F8008048EA19
:100720000008DFF8F09000E05AE009F10409C9F888
:1007300000800DE0DFF8DC8008F10408D8F80080C4
:1007400028EA0008DFF8CC9009F10409C9F8008014
:10075000D1F8048008F40038B8F5003F0ED1DFF876
:10076000B480A8F10408D8F8008048EA0008DFF84F
:10077000A490A9F10409C9F800800DE0DFF8948085
:10078000A8F10408D8F8008028EA0008DFF884906F
:10079000A9F10409C9F80080D1F8048008F4803870
:1007A000B8F5803F0ED1DFF86C80A8F10808D8F8C2
:1007B000008048EA0008DFF85C90A9F10809C9F850
:1007C00000800DE0DFF84C80A8F10808D8F8008020
:1007D00028EA0008DFF83C90A9F10809C9F8008070
:1007E000521CD1F8008028FA02F8B8F1000F7FF40B
:1007F00089AEBDE8F887000000001110001002402B
:1008000000080140000C01400010014000140140AC
:1008100008000140080401400AB1016101E00B0435
:100820000361704701480068704700000000002025
:100830000348006803490978084401490860704783
:10084000000000200800002010B50848006840F0B3
:10085000100006490860032000F070F80F2000F037
:1008600007F800F02BF8002010BD00000020024027
:1008700070B504460E4800784FF47A71B1FBF0F081
:100880000C490968B1FBF0F5284600F0C1FB08B13E
:10089000012070BD102C07D200222146501E00F00E
:1008A0000EF80548046001E00120F2E70020F0E7BF
:1008B00008000020140000200400002070472DE9EB
:1008C000F05F80460D461646002700F0C7FD07463C
:1008D00039462A46334601F00700C0F1070ABAF14B
:1008E000040F02D94FF0040A01E0C0F1070AD14613
:1008F00000F1040ABAF1070F02D24FF0000A01E03A
:10090000A0F1030AD4464FF0010A0AFA09FAAAF143
:10091000010A0AEA020A0AFA0CFA4FF0010B0BFA72
:100920000CFBABF1010B0BEA030B4AEA0B0421466B
:10093000404600F09BFDBDE8F09F000000BF00F0C6
:100940000702064B19684FF6FF031940044B0B438F
:1009500043EA0221014B196000BF70470CED00E033
:100960000000FA0570B504460D460CB9012070BDB3
:100970005A48006800F00700A8420ED257480068A5
:1009800020F007002843554908600846006800F039
:100990000700A84201D00120E9E7207800F002001A
:1009A00002281DD1207800F00400042805D14C480D
:1009B000406840F4E0604A494860207800F0080050
:1009C000082805D14648406840F4605044494860D2
:1009D0004348406820F0F000A1680843404948605F
:1009E000207800F0010078B36068012806D13C4807
:1009F000006800F4003090B90120B8E76068022870
:100A000006D13748006800F0007040B90120AEE719
:100A10003348006800F0020008B90120A7E7304819
:100A2000406820F00300616808432D494860FFF7E3
:100A3000F9FE064609E0FFF7F5FE801B41F288311A
:100A4000884202D9032092E707E02548406800F079
:100A50000C006168B0EB810FEDD12048006800F018
:100A60000700A8420ED91D48006820F0070028435F
:100A70001A4908600846006800F00700A84201D043
:100A8000012074E7207800F00400042807D11448FE
:100A9000406820F4E060E16808431149486020782C
:100AA00000F00800082808D10D48406820F4605084
:100AB000216940EAC1000A49486000F03FF808494E
:100AC0004968C1F30311074A515CC84006490860F0
:100AD00006480068FFF7CCFE002048E700200240EF
:100AE0000010024008160008140000200400002036
:100AF00001480068704700001400002000B5FFF7AF
:100B0000F7FF04494968C1F30221034A515CC84018
:100B100000BD0000001002401816000800B5FFF7E5
:100B2000E7FF04494968C1F3C221034A515CC84048
:100B300000BD0000001002401816000870B500212A
:100B40000022002400230020134D696801F00C05E9
:100B5000F5B1042D02D0082D19D101E00F4819E09C
:100B60000F4DC1F38346AB5D01F4803555B10A4D9D
:100B70006D68C5F340450B4E725D084D5D43B5FB96
:100B8000F2F402E0084D03FB05F4204602E000BF4A
:100B9000024800BF00BF70BD0010024000127A0082
:100BA000F61500080616000800093D00F8B50446D1
:100BB0000CB90120F8BD207800F00100002878D0A1
:100BC000F848406800F00C0004280CD0F548406854
:100BD00000F00C00082811D1F248406800F4803081
:100BE000B0F5803F0AD1EF48006800F400300028DB
:100BF0005FD0606800285CD10120DBE700BF60683F
:100C0000B0F5803F06D1E748006840F48030E54900
:100C1000086028E0606858B9E248006820F4803035
:100C2000E04908600846006820F4802008601AE067
:100C30006068B0F5A02F0BD1DA48006840F480203E
:100C4000D84908600846006840F4803008600AE02F
:100C5000D448006820F48030D24908600846006813
:100C600020F48020086000BF606888B1FFF7DAFDDB
:100C7000054606E0FFF7D6FD401B642801D9032096
:100C800098E7C848006800F400300028F2D010E06F
:100C9000FFF7C8FD054606E0FFF7C4FD401B6428CA
:100CA00001D9032086E7BF48006800F4003000281F
:100CB000F2D1207800F00200022857D1B9484068EC
:100CC00000F00C0050B1B748406800F00C00082854
:100CD00018D1B448406800F4803098B9B148006831
:100CE00000F0020020B12069012801D0012061E755
:100CF000AC48006820F0F800616940EAC100A949E9
:100D0000086033E02069E8B10120A7490860FFF7D7
:100D100089FD054606E0FFF785FD401B022801D945
:100D2000032047E79F48006800F002000028F2D047
:100D30009C48006820F0F800616940EAC1009949C8
:100D4000086013E0002098490860FFF76BFD054636
:100D500006E0FFF767FD401B022801D9032029E7C1
:100D60009048006800F002000028F2D1207800F0DE
:100D7000080008282DD1A069B8B101208B4908606E
:100D8000FFF750FD054606E0FFF74CFD401B02282B
:100D900001D903200EE78348406A00F002000028D2
:100DA000F2D0012000F0F2F913E000207F49086042
:100DB000FFF738FD054606E0FFF734FD401B02282B
:100DC00001D90320F6E67748406A00F002000028C7
:100DD000F2D1207800F00400042873D10027714874
:100DE000C06900F0805070B900BF6E48C06940F023
:100DF00080506C49C8610846C06900F0805000907E
:100E000000BF00BF01276A48006800F48070B0B9D5
:100E10006748006840F4807065490860FFF702FD8C
:100E2000054606E0FFF7FEFC401B642801D90320BD
:100E3000C0E65F48006800F480700028F2D000BF70
:100E4000E068012806D15748006A40F00100554982
:100E5000086227E0E06858B95248006A20F00100B3
:100E6000504908620846006A20F00400086219E050
:100E7000E06805280BD14B48006A40F0040049495E
:100E800008620846006A40F0010008620AE045482E
:100E9000006A20F00100434908620846006A20F019
:100EA0000400086200BFE068A0B1FFF7BBFC054684
:100EB00009E0FFF7B7FC401B41F28831884202D9B4
:100EC000032077E622E03748006A00F0020000289D
:100ED000EFD012E0FFF7A6FC054608E0FFF7A2FC02
:100EE000401B41F28831884201D9032062E62D4837
:100EF000006A00F002000028F0D1012F05D1294836
:100F0000C06920F080502749C86100BFE069C8B3BC
:100F10002448406800F00C00082860D0E0690228EE
:100F200048D1002020490866FFF77CFC054606E012
:100F3000FFF778FC401B022801D903203AE6194844
:100F4000006800F000700028F2D1206AB0F5803F00
:100F500007D11448406820F40030A16808431149C3
:100F60004860D4E9080108430E49496821F4741126
:100F700008430C49486001200B490866FFF752FC02
:100F8000054607E03DE0FFF74DFC401B022801D974
:100F900003200FE60348006800F000700028F2D03C
:100FA0002FE0000000100240000042428004424254
:100FB00000700040002014490866FFF733FC054626
:100FC00006E0FFF72FFC401B022801D90320F1E5C2
:100FD0000E48006800F000700028F2D111E0E069CE
:100FE000012800D1E6E50948466806F48031206A08
:100FF000814204D106F47011606A814201D001205F
:10100000D8E50020D6E50000000042420010024072
:1010100070B504462546681EB0F1807F01D30120DB
:101020000FE0681E4FF0E02148610F214FF0FF30C4
:1010300000F01CFA00204FF0E021886107200861D1
:10104000002070BD10B504460CB9012010BDA06988
:1010500000B100E000BF94F8410028B9002084F8F6
:101060004000204600F029F8242084F84100206840
:10107000C06820F400502168C860204600F0D6F80F
:101080002068006920F49040216808612068406968
:1010900020F02A00216848612068C06840F40050B0
:1010A0002168C86000206064202084F8410084F832
:1010B00042000020606300BFC8E770472DE9F84F89
:1010C00004460E46174699464FF0000A94F842002F
:1010D000202852D106B117B90120BDE8F88F0020B1
:1010E0006064222084F8420000202063FFF79AFB0E
:1010F0008246A785E785A068B0F5805F04D12069A6
:1011000010B90025B04602E035464FF000082CE04B
:101110005346002220212046CDF8009000F004F92B
:1011200020B1202084F842000320D6E745B920688A
:101130004068C0F30800A8F8000008F1020811E0B8
:10114000A068B0F5805F03D0A06828B9206918B9FD
:1011500020684068287004E02068406800F07F0044
:1011600028706D1CE08D401EE085E08D0028CFD1F9
:10117000202084F842000020AFE70220ADE700BF46
:10118000FEE700BFFEE770477047000008B508495A
:101190000968C9084FF47A72B1FBF2F1414300913A
:1011A00000BF00BF00994A1E00920029F9D108BD76
:1011B00014000020704710B5FFF73AFB10BD7047D0
:1011C00000BF00BF02680C3252E8002F22F4907179
:1011D00002680C3242E80013002BF3D100BF00BFBD
:1011E00000BF0268143252E8002F22F001010268A9
:1011F000143242E80013002BF3D100BF016B012928
:101200000ED100BF00BF02680C3252E8002F22F05E
:10121000100102680C3242E80013002BF3D100BF2A
:10122000202180F8421000210163704770B5044608
:101230002168096921F44051E26811432268116173
:101240002269A1681143626941EA02052168C968FF
:1012500041F20C62914329432268D16021684969B7
:1012600021F44071A2691143226851612D4A21681D
:10127000914202D1FFF752FC01E0FFF73FFC00EB87
:10128000C00101EB001162689200B1FBF2F100EBCA
:10129000C00202EB001263689B00B2FBF3F264230E
:1012A000B2FBF3F202EBC20303EB0212A1EB8201E9
:1012B000322202EB01116422B1FBF2F101F0F001E4
:1012C00000EBC00202EB001263689B00B2FBF3F27A
:1012D0006423B2FBF3F201EB021200EBC00101EB5D
:1012E000001163689B00B1FBF3F100EBC00303EB5B
:1012F00000136668B600B3FBF6F36426B3FBF6F39F
:1013000003EBC30606EB0313A1EB8301322303EBCC
:1013100001116423B1FBF3F101F00F0111442268C4
:10132000916070BD003801402DE9F84304460D4638
:1013300017469846089E31E0701C70B3FFF772FAAA
:10134000A0EB0800B04200D816B90320BDE8F8832E
:101350002068C06800F00400F8B1802D1ED0402D38
:101360001CD020680068C0F3C000B0B100BF0020EE
:10137000009020680068009020684068009000BFDE
:1013800000BF2046FFF71CFF0820606400BF00205C
:1013900084F8400000BF0120D8E7FFE7206800681C
:1013A0002840A84201D1012000E00020B842C3D06B
:1013B0000020CBE700B585B02348244908604FF4EE
:1013C00016504860002121488160C16001610C21F4
:1013D000416100218161C161002001900290039070
:1013E000049000BF1A48806940F0040018498861E1
:1013F0000846806900F00400009000BF00BF00BFF5
:101400000846C06940F40030C8610846C06900F46D
:101410000030009000BF00BF042001900220029025
:101420000320049001A90B48FFF766F808200190FB
:1014300000200290039001A90648FFF75DF80348D9
:10144000FFF700FE05B000BD00440040180000207A
:10145000001002400008014000BFFEE7024800689B
:10146000C0F30220704700000CED00E010B500282A
:1014700004DB0A07130E054A135406E00A07140E8C
:10148000034A00F00F031B1FD45410BD00E400E01A
:1014900018ED00E000BF7047014908607047000088
:1014A0000C00002010B504464FF47A7104FB01F0E3
:1014B00000F002F810BD000070B5034600224FF0A6
:1014C000E02675690D4E366803FB06F44FF0E02602
:1014D000B16910E04FF0E026B06988420BD0884235
:1014E00002D20E1A324402E02E1A0E443244014651
:1014F000A24200D300E0EDE700BF70BD0C00002069
:1015000000BF054A126802F04002002AF9D0C2B2B8
:10151000014B1B1D1A60704700380140ADF5007D7E
:10152000FFF792F94FF4E01000F032F84820FFF78F
:10153000B3FFFEF75BFFFEF7ADFFFFF73BFF17E0E2
:101540000CA0FEF747FE4FF47A70FEF7CFFF4FF482
:1015500000716846FEF7A7FE4FF47A7340F2FF125F
:1015600069460648FFF7AAFD694605A0FEF732FE68
:10157000E6E7000068656C6C6F0D0A00180000203B
:1015800052656365697665643A2025730D0A00002B
:1015900030B58FB005460124282105A8FEF783FE4B
:1015A00014216846FEF77FFE012005900004069096
:1015B0000020079002200C90C1030D910E9505A804
:1015C000FFF7F4FA04460CB100BFFEE70F200090CD
:1015D00002200190002002904FF4806003900020D0
:1015E000049002216846FFF7BDF904460CB100BF24
:1015F000FEE70FB030BD02030405060708090A0B19
:101600000C0D0E0F10100102000000000000000081
:101610000102030406070809000000000102030498
:1016200040160008000000201800000028010008F3
:101630005816000818000020F006000044010008B9
:101640000000000010000000010000000000000089
:081650000000000000127A0006
:04000005080000ED02
:00000001FF
